{
  "contractName": "Emergency",
  "abi": [
    {
      "inputs": [
        {
          "internalType": "string",
          "name": "_name",
          "type": "string"
        },
        {
          "internalType": "string",
          "name": "_symbol",
          "type": "string"
        },
        {
          "internalType": "string",
          "name": "_version",
          "type": "string"
        }
      ],
      "stateMutability": "nonpayable",
      "type": "constructor"
    },
    {
      "anonymous": false,
      "inputs": [
        {
          "indexed": true,
          "internalType": "address",
          "name": "owner",
          "type": "address"
        },
        {
          "indexed": true,
          "internalType": "address",
          "name": "spender",
          "type": "address"
        },
        {
          "indexed": false,
          "internalType": "uint256",
          "name": "value",
          "type": "uint256"
        }
      ],
      "name": "Approval",
      "type": "event"
    },
    {
      "anonymous": false,
      "inputs": [
        {
          "indexed": true,
          "internalType": "address",
          "name": "caller",
          "type": "address"
        },
        {
          "indexed": true,
          "internalType": "address",
          "name": "signer",
          "type": "address"
        },
        {
          "indexed": true,
          "internalType": "address",
          "name": "emergencyAddress",
          "type": "address"
        },
        {
          "indexed": false,
          "internalType": "uint256",
          "name": "amount",
          "type": "uint256"
        }
      ],
      "name": "EmergencyTransfer",
      "type": "event"
    },
    {
      "anonymous": false,
      "inputs": [
        {
          "indexed": true,
          "internalType": "address",
          "name": "tokenHolder",
          "type": "address"
        },
        {
          "indexed": true,
          "internalType": "address",
          "name": "emergencyAddress",
          "type": "address"
        }
      ],
      "name": "RegisterEmergencyAddress",
      "type": "event"
    },
    {
      "anonymous": false,
      "inputs": [
        {
          "indexed": true,
          "internalType": "address",
          "name": "from",
          "type": "address"
        },
        {
          "indexed": true,
          "internalType": "address",
          "name": "to",
          "type": "address"
        },
        {
          "indexed": false,
          "internalType": "uint256",
          "name": "value",
          "type": "uint256"
        }
      ],
      "name": "Transfer",
      "type": "event"
    },
    {
      "inputs": [
        {
          "internalType": "address",
          "name": "",
          "type": "address"
        }
      ],
      "name": "accountInformation",
      "outputs": [
        {
          "internalType": "address",
          "name": "emergencyAddress",
          "type": "address"
        },
        {
          "internalType": "bool",
          "name": "isBlacklisted",
          "type": "bool"
        }
      ],
      "stateMutability": "view",
      "type": "function"
    },
    {
      "inputs": [
        {
          "internalType": "address",
          "name": "owner",
          "type": "address"
        },
        {
          "internalType": "address",
          "name": "spender",
          "type": "address"
        }
      ],
      "name": "allowance",
      "outputs": [
        {
          "internalType": "uint256",
          "name": "",
          "type": "uint256"
        }
      ],
      "stateMutability": "view",
      "type": "function"
    },
    {
      "inputs": [
        {
          "internalType": "address",
          "name": "spender",
          "type": "address"
        },
        {
          "internalType": "uint256",
          "name": "amount",
          "type": "uint256"
        }
      ],
      "name": "approve",
      "outputs": [
        {
          "internalType": "bool",
          "name": "",
          "type": "bool"
        }
      ],
      "stateMutability": "nonpayable",
      "type": "function"
    },
    {
      "inputs": [
        {
          "internalType": "address",
          "name": "account",
          "type": "address"
        }
      ],
      "name": "balanceOf",
      "outputs": [
        {
          "internalType": "uint256",
          "name": "",
          "type": "uint256"
        }
      ],
      "stateMutability": "view",
      "type": "function"
    },
    {
      "inputs": [],
      "name": "decimals",
      "outputs": [
        {
          "internalType": "uint8",
          "name": "",
          "type": "uint8"
        }
      ],
      "stateMutability": "view",
      "type": "function"
    },
    {
      "inputs": [
        {
          "internalType": "address",
          "name": "spender",
          "type": "address"
        },
        {
          "internalType": "uint256",
          "name": "subtractedValue",
          "type": "uint256"
        }
      ],
      "name": "decreaseAllowance",
      "outputs": [
        {
          "internalType": "bool",
          "name": "",
          "type": "bool"
        }
      ],
      "stateMutability": "nonpayable",
      "type": "function"
    },
    {
      "inputs": [
        {
          "internalType": "address",
          "name": "spender",
          "type": "address"
        },
        {
          "internalType": "uint256",
          "name": "addedValue",
          "type": "uint256"
        }
      ],
      "name": "increaseAllowance",
      "outputs": [
        {
          "internalType": "bool",
          "name": "",
          "type": "bool"
        }
      ],
      "stateMutability": "nonpayable",
      "type": "function"
    },
    {
      "inputs": [],
      "name": "name",
      "outputs": [
        {
          "internalType": "string",
          "name": "",
          "type": "string"
        }
      ],
      "stateMutability": "view",
      "type": "function"
    },
    {
      "inputs": [],
      "name": "symbol",
      "outputs": [
        {
          "internalType": "string",
          "name": "",
          "type": "string"
        }
      ],
      "stateMutability": "view",
      "type": "function"
    },
    {
      "inputs": [],
      "name": "totalSupply",
      "outputs": [
        {
          "internalType": "uint256",
          "name": "",
          "type": "uint256"
        }
      ],
      "stateMutability": "view",
      "type": "function"
    },
    {
      "inputs": [
        {
          "internalType": "address",
          "name": "signer",
          "type": "address"
        },
        {
          "internalType": "uint256",
          "name": "expiration",
          "type": "uint256"
        },
        {
          "internalType": "uint8",
          "name": "v",
          "type": "uint8"
        },
        {
          "internalType": "bytes32",
          "name": "r",
          "type": "bytes32"
        },
        {
          "internalType": "bytes32",
          "name": "s",
          "type": "bytes32"
        }
      ],
      "name": "emergencyTransfer",
      "outputs": [],
      "stateMutability": "nonpayable",
      "type": "function"
    },
    {
      "inputs": [
        {
          "internalType": "address",
          "name": "emergencyAddress",
          "type": "address"
        }
      ],
      "name": "registerEmergencyAddress",
      "outputs": [],
      "stateMutability": "nonpayable",
      "type": "function"
    },
    {
      "inputs": [
        {
          "internalType": "address",
          "name": "tokenHolder",
          "type": "address"
        }
      ],
      "name": "getEmergencyAddress",
      "outputs": [
        {
          "internalType": "address",
          "name": "",
          "type": "address"
        }
      ],
      "stateMutability": "view",
      "type": "function"
    },
    {
      "inputs": [
        {
          "internalType": "address",
          "name": "signer",
          "type": "address"
        },
        {
          "internalType": "uint256",
          "name": "expiration",
          "type": "uint256"
        }
      ],
      "name": "buildDigest",
      "outputs": [
        {
          "internalType": "bytes32",
          "name": "",
          "type": "bytes32"
        }
      ],
      "stateMutability": "view",
      "type": "function"
    },
    {
      "inputs": [
        {
          "internalType": "bytes32",
          "name": "digest",
          "type": "bytes32"
        },
        {
          "internalType": "uint8",
          "name": "v",
          "type": "uint8"
        },
        {
          "internalType": "bytes32",
          "name": "r",
          "type": "bytes32"
        },
        {
          "internalType": "bytes32",
          "name": "s",
          "type": "bytes32"
        }
      ],
      "name": "recoverSigner",
      "outputs": [
        {
          "internalType": "address",
          "name": "",
          "type": "address"
        }
      ],
      "stateMutability": "pure",
      "type": "function"
    },
    {
      "inputs": [
        {
          "internalType": "address",
          "name": "recipient",
          "type": "address"
        },
        {
          "internalType": "uint256",
          "name": "amount",
          "type": "uint256"
        }
      ],
      "name": "transfer",
      "outputs": [
        {
          "internalType": "bool",
          "name": "",
          "type": "bool"
        }
      ],
      "stateMutability": "nonpayable",
      "type": "function"
    },
    {
      "inputs": [
        {
          "internalType": "address",
          "name": "sender",
          "type": "address"
        },
        {
          "internalType": "address",
          "name": "recipient",
          "type": "address"
        },
        {
          "internalType": "uint256",
          "name": "amount",
          "type": "uint256"
        }
      ],
      "name": "transferFrom",
      "outputs": [
        {
          "internalType": "bool",
          "name": "",
          "type": "bool"
        }
      ],
      "stateMutability": "nonpayable",
      "type": "function"
    },
    {
      "inputs": [
        {
          "internalType": "bytes32",
          "name": "structHash",
          "type": "bytes32"
        }
      ],
      "name": "buildHashTypedDataV4",
      "outputs": [
        {
          "internalType": "bytes32",
          "name": "",
          "type": "bytes32"
        }
      ],
      "stateMutability": "view",
      "type": "function"
    }
  ],
  "bytecode": "0x6101406040523480156200001257600080fd5b50604051620037863803806200378683398181016040528101906200003891906200059a565b8282848360008280519060200120905060008280519060200120905060007f8b73c3c69bb8fe3d512ecc4cf759cc79239f7b179b0ffacaa9a75d522b39400f90508260e081815250508161010081815250504660a08181525050620000a58184846200017d60201b60201c565b608081815250503073ffffffffffffffffffffffffffffffffffffffff1660c08173ffffffffffffffffffffffffffffffffffffffff168152505080610120818152505050505050508160039080519060200190620001069291906200034d565b5080600490805190602001906200011f9291906200034d565b505050600060649050620001736200013c620001b960201b60201c565b6200014c620001c160201b60201c565b600a6200015a9190620007ed565b836200016791906200083e565b620001ca60201b60201c565b5050505062000acf565b600083838346306040516020016200019a95949392919062000910565b6040516020818303038152906040528051906020012090509392505050565b600033905090565b60006012905090565b600073ffffffffffffffffffffffffffffffffffffffff168273ffffffffffffffffffffffffffffffffffffffff1614156200023d576040517f08c379a00000000000000000000000000000000000000000000000000000000081526004016200023490620009ce565b60405180910390fd5b62000251600083836200034360201b60201c565b8060026000828254620002659190620009f0565b92505081905550806000808473ffffffffffffffffffffffffffffffffffffffff1673ffffffffffffffffffffffffffffffffffffffff1681526020019081526020016000206000828254620002bc9190620009f0565b925050819055508173ffffffffffffffffffffffffffffffffffffffff16600073ffffffffffffffffffffffffffffffffffffffff167fddf252ad1be2c89b69c2b068fc378daa952ba7f163c4a11628f55a4df523b3ef8360405162000323919062000a4d565b60405180910390a36200033f600083836200034860201b60201c565b5050565b505050565b505050565b8280546200035b9062000a99565b90600052602060002090601f0160209004810192826200037f5760008555620003cb565b82601f106200039a57805160ff1916838001178555620003cb565b82800160010185558215620003cb579182015b82811115620003ca578251825591602001919060010190620003ad565b5b509050620003da9190620003de565b5090565b5b80821115620003f9576000816000905550600101620003df565b5090565b6000604051905090565b600080fd5b600080fd5b600080fd5b600080fd5b6000601f19601f8301169050919050565b7f4e487b7100000000000000000000000000000000000000000000000000000000600052604160045260246000fd5b62000466826200041b565b810181811067ffffffffffffffff821117156200048857620004876200042c565b5b80604052505050565b60006200049d620003fd565b9050620004ab82826200045b565b919050565b600067ffffffffffffffff821115620004ce57620004cd6200042c565b5b620004d9826200041b565b9050602081019050919050565b60005b8381101562000506578082015181840152602081019050620004e9565b8381111562000516576000848401525b50505050565b6000620005336200052d84620004b0565b62000491565b90508281526020810184848401111562000552576200055162000416565b5b6200055f848285620004e6565b509392505050565b600082601f8301126200057f576200057e62000411565b5b8151620005918482602086016200051c565b91505092915050565b600080600060608486031215620005b657620005b562000407565b5b600084015167ffffffffffffffff811115620005d757620005d66200040c565b5b620005e58682870162000567565b935050602084015167ffffffffffffffff8111156200060957620006086200040c565b5b620006178682870162000567565b925050604084015167ffffffffffffffff8111156200063b576200063a6200040c565b5b620006498682870162000567565b9150509250925092565b7f4e487b7100000000000000000000000000000000000000000000000000000000600052601160045260246000fd5b60008160011c9050919050565b6000808291508390505b6001851115620006e157808604811115620006b957620006b862000653565b5b6001851615620006c95780820291505b8081029050620006d98562000682565b945062000699565b94509492505050565b600082620006fc5760019050620007cf565b816200070c5760009050620007cf565b8160018114620007255760028114620007305762000766565b6001915050620007cf565b60ff84111562000745576200074462000653565b5b8360020a9150848211156200075f576200075e62000653565b5b50620007cf565b5060208310610133831016604e8410600b8410161715620007a05782820a9050838111156200079a576200079962000653565b5b620007cf565b620007af84848460016200068f565b92509050818404811115620007c957620007c862000653565b5b81810290505b9392505050565b6000819050919050565b600060ff82169050919050565b6000620007fa82620007d6565b91506200080783620007e0565b9250620008367fffffffffffffffffffffffffffffffffffffffffffffffffffffffffffffffff8484620006ea565b905092915050565b60006200084b82620007d6565b91506200085883620007d6565b9250817fffffffffffffffffffffffffffffffffffffffffffffffffffffffffffffffff048311821515161562000894576200089362000653565b5b828202905092915050565b6000819050919050565b620008b4816200089f565b82525050565b620008c581620007d6565b82525050565b600073ffffffffffffffffffffffffffffffffffffffff82169050919050565b6000620008f882620008cb565b9050919050565b6200090a81620008eb565b82525050565b600060a082019050620009276000830188620008a9565b620009366020830187620008a9565b620009456040830186620008a9565b620009546060830185620008ba565b620009636080830184620008ff565b9695505050505050565b600082825260208201905092915050565b7f45524332303a206d696e7420746f20746865207a65726f206164647265737300600082015250565b6000620009b6601f836200096d565b9150620009c3826200097e565b602082019050919050565b60006020820190508181036000830152620009e981620009a7565b9050919050565b6000620009fd82620007d6565b915062000a0a83620007d6565b9250827fffffffffffffffffffffffffffffffffffffffffffffffffffffffffffffffff0382111562000a425762000a4162000653565b5b828201905092915050565b600060208201905062000a646000830184620008ba565b92915050565b7f4e487b7100000000000000000000000000000000000000000000000000000000600052602260045260246000fd5b6000600282049050600182168062000ab257607f821691505b6020821081141562000ac95762000ac862000a6a565b5b50919050565b60805160a05160c05160e0516101005161012051612c6762000b1f60003960006118540152600061189601526000611875015260006117aa01526000611800015260006118290152612c676000f3fe608060405234801561001057600080fd5b50600436106101165760003560e01c806370a08231116100a2578063a9059cbb11610071578063a9059cbb14610330578063b800505d14610360578063c9c7665d1461037c578063d45167d0146103ac578063dd62ed3e146103dc57610116565b806370a08231146102825780637f80cb2e146102b257806395d89b41146102e2578063a457c2d71461030057610116565b806318160ddd116100e957806318160ddd146101b657806323b872dd146101d4578063313ce5671461020457806339509351146102225780634d15aeeb1461025257610116565b806306fdde031461011b578063095ea7b314610139578063159bbcf61461016957806316192d2a14610185575b600080fd5b61012361040c565b6040516101309190611ca8565b60405180910390f35b610153600480360381019061014e9190611d63565b61049e565b6040516101609190611dbe565b60405180910390f35b610183600480360381019061017e9190611e48565b6104bc565b005b61019f600480360381019061019a9190611ec3565b610920565b6040516101ad929190611eff565b60405180910390f35b6101be610971565b6040516101cb9190611f37565b60405180910390f35b6101ee60048036038101906101e99190611f52565b61097b565b6040516101fb9190611dbe565b60405180910390f35b61020c610abb565b6040516102199190611fb4565b60405180910390f35b61023c60048036038101906102379190611d63565b610ac4565b6040516102499190611dbe565b60405180910390f35b61026c60048036038101906102679190611d63565b610b70565b6040516102799190611fde565b60405180910390f35b61029c60048036038101906102979190611ec3565b610bd7565b6040516102a99190611f37565b60405180910390f35b6102cc60048036038101906102c79190611ec3565b610c1f565b6040516102d99190611ff9565b60405180910390f35b6102ea610cfd565b6040516102f79190611ca8565b60405180910390f35b61031a60048036038101906103159190611d63565b610d8f565b6040516103279190611dbe565b60405180910390f35b61034a60048036038101906103459190611d63565b610e7a565b6040516103579190611dbe565b60405180910390f35b61037a60048036038101906103759190611ec3565b610f53565b005b61039660048036038101906103919190612014565b611252565b6040516103a39190611fde565b60405180910390f35b6103c660048036038101906103c19190612041565b611264565b6040516103d39190611ff9565b60405180910390f35b6103f660048036038101906103f191906120a8565b61127c565b6040516104039190611f37565b60405180910390f35b60606003805461041b90612117565b80601f016020809104026020016040519081016040528092919081815260200182805461044790612117565b80156104945780601f1061046957610100808354040283529160200191610494565b820191906000526020600020905b81548152906001019060200180831161047757829003601f168201915b5050505050905090565b60006104b26104ab611303565b848461130b565b6001905092915050565b84600073ffffffffffffffffffffffffffffffffffffffff168173ffffffffffffffffffffffffffffffffffffffff16141561052d576040517f08c379a000000000000000000000000000000000000000000000000000000000815260040161052490612195565b60405180910390fd5b85600560008273ffffffffffffffffffffffffffffffffffffffff1673ffffffffffffffffffffffffffffffffffffffff16815260200190815260200160002060000160149054906101000a900460ff16156105be576040517f08c379a00000000000000000000000000000000000000000000000000000000081526004016105b590612201565b60405180910390fd5b86600073ffffffffffffffffffffffffffffffffffffffff16600560008373ffffffffffffffffffffffffffffffffffffffff1673ffffffffffffffffffffffffffffffffffffffff16815260200190815260200160002060000160009054906101000a900473ffffffffffffffffffffffffffffffffffffffff1673ffffffffffffffffffffffffffffffffffffffff161415610691576040517f08c379a00000000000000000000000000000000000000000000000000000000081526004016106889061226d565b60405180910390fd5b600061069d8989610b70565b90506106ab81888888611264565b73ffffffffffffffffffffffffffffffffffffffff168973ffffffffffffffffffffffffffffffffffffffff1614610718576040517f08c379a000000000000000000000000000000000000000000000000000000000815260040161070f906122d9565b60405180910390fd5b87421061075a576040517f08c379a000000000000000000000000000000000000000000000000000000000815260040161075190612345565b60405180910390fd5b60006107658a610bd7565b90506001600560008c73ffffffffffffffffffffffffffffffffffffffff1673ffffffffffffffffffffffffffffffffffffffff16815260200190815260200160002060000160146101000a81548160ff02191690831515021790555061082f8a600560008d73ffffffffffffffffffffffffffffffffffffffff1673ffffffffffffffffffffffffffffffffffffffff16815260200190815260200160002060000160009054906101000a900473ffffffffffffffffffffffffffffffffffffffff16836114d6565b600560008b73ffffffffffffffffffffffffffffffffffffffff1673ffffffffffffffffffffffffffffffffffffffff16815260200190815260200160002060000160009054906101000a900473ffffffffffffffffffffffffffffffffffffffff1673ffffffffffffffffffffffffffffffffffffffff168a73ffffffffffffffffffffffffffffffffffffffff166108c7611303565b73ffffffffffffffffffffffffffffffffffffffff167f653979e6161a42c349ffe4cdd6851fac9f782a477ffbf3e529610825881446328460405161090c9190611f37565b60405180910390a450505050505050505050565b60056020528060005260406000206000915090508060000160009054906101000a900473ffffffffffffffffffffffffffffffffffffffff16908060000160149054906101000a900460ff16905082565b6000600254905090565b6000600560008473ffffffffffffffffffffffffffffffffffffffff1673ffffffffffffffffffffffffffffffffffffffff16815260200190815260200160002060000160149054906101000a900460ff1615610a3857600560008473ffffffffffffffffffffffffffffffffffffffff1673ffffffffffffffffffffffffffffffffffffffff16815260200190815260200160002060000160009054906101000a900473ffffffffffffffffffffffffffffffffffffffff1692505b610a438484846114d6565b6000610a5685610a51611303565b61127c565b905082811015610a9b576040517f08c379a0000000000000000000000000000000000000000000000000000000008152600401610a92906123d7565b60405180910390fd5b610aaf85610aa7611303565b85840361130b565b60019150509392505050565b60006012905090565b6000610b66610ad1611303565b848460016000610adf611303565b73ffffffffffffffffffffffffffffffffffffffff1673ffffffffffffffffffffffffffffffffffffffff16815260200190815260200160002060008873ffffffffffffffffffffffffffffffffffffffff1673ffffffffffffffffffffffffffffffffffffffff16815260200190815260200160002054610b619190612426565b61130b565b6001905092915050565b600080604051806060016040528060348152602001612bfe603491398051906020012090506000610bca828686604051602001610baf9392919061247c565b60405160208183030381529060405280519060200120611757565b9050809250505092915050565b60008060008373ffffffffffffffffffffffffffffffffffffffff1673ffffffffffffffffffffffffffffffffffffffff168152602001908152602001600020549050919050565b600081600073ffffffffffffffffffffffffffffffffffffffff168173ffffffffffffffffffffffffffffffffffffffff161415610c92576040517f08c379a0000000000000000000000000000000000000000000000000000000008152600401610c8990612195565b60405180910390fd5b600560008473ffffffffffffffffffffffffffffffffffffffff1673ffffffffffffffffffffffffffffffffffffffff16815260200190815260200160002060000160009054906101000a900473ffffffffffffffffffffffffffffffffffffffff16915050919050565b606060048054610d0c90612117565b80601f0160208091040260200160405190810160405280929190818152602001828054610d3890612117565b8015610d855780601f10610d5a57610100808354040283529160200191610d85565b820191906000526020600020905b815481529060010190602001808311610d6857829003601f168201915b5050505050905090565b60008060016000610d9e611303565b73ffffffffffffffffffffffffffffffffffffffff1673ffffffffffffffffffffffffffffffffffffffff16815260200190815260200160002060008573ffffffffffffffffffffffffffffffffffffffff1673ffffffffffffffffffffffffffffffffffffffff16815260200190815260200160002054905082811015610e5b576040517f08c379a0000000000000000000000000000000000000000000000000000000008152600401610e5290612525565b60405180910390fd5b610e6f610e66611303565b8585840361130b565b600191505092915050565b6000600560008473ffffffffffffffffffffffffffffffffffffffff1673ffffffffffffffffffffffffffffffffffffffff16815260200190815260200160002060000160149054906101000a900460ff1615610f3757600560008473ffffffffffffffffffffffffffffffffffffffff1673ffffffffffffffffffffffffffffffffffffffff16815260200190815260200160002060000160009054906101000a900473ffffffffffffffffffffffffffffffffffffffff1692505b610f49610f42611303565b84846114d6565b6001905092915050565b610f5b611303565b600560008273ffffffffffffffffffffffffffffffffffffffff1673ffffffffffffffffffffffffffffffffffffffff16815260200190815260200160002060000160149054906101000a900460ff1615610feb576040517f08c379a0000000000000000000000000000000000000000000000000000000008152600401610fe290612201565b60405180910390fd5b81600560008273ffffffffffffffffffffffffffffffffffffffff1673ffffffffffffffffffffffffffffffffffffffff16815260200190815260200160002060000160149054906101000a900460ff161561107c576040517f08c379a000000000000000000000000000000000000000000000000000000000815260040161107390612201565b60405180910390fd5b82600073ffffffffffffffffffffffffffffffffffffffff168173ffffffffffffffffffffffffffffffffffffffff1614156110ed576040517f08c379a00000000000000000000000000000000000000000000000000000000081526004016110e490612195565b60405180910390fd5b8373ffffffffffffffffffffffffffffffffffffffff1661110c611303565b73ffffffffffffffffffffffffffffffffffffffff161415611163576040517f08c379a000000000000000000000000000000000000000000000000000000000815260040161115a90612591565b60405180910390fd5b8360056000611170611303565b73ffffffffffffffffffffffffffffffffffffffff1673ffffffffffffffffffffffffffffffffffffffff16815260200190815260200160002060000160006101000a81548173ffffffffffffffffffffffffffffffffffffffff021916908373ffffffffffffffffffffffffffffffffffffffff1602179055508373ffffffffffffffffffffffffffffffffffffffff1661120a611303565b73ffffffffffffffffffffffffffffffffffffffff167fc45a2322836ca9ecf068ec686daebd8ab074d7ce9f9bc6a5cc558b29f266131860405160405180910390a350505050565b600061125d82611757565b9050919050565b600061127285858585611771565b9050949350505050565b6000600160008473ffffffffffffffffffffffffffffffffffffffff1673ffffffffffffffffffffffffffffffffffffffff16815260200190815260200160002060008373ffffffffffffffffffffffffffffffffffffffff1673ffffffffffffffffffffffffffffffffffffffff16815260200190815260200160002054905092915050565b600033905090565b600073ffffffffffffffffffffffffffffffffffffffff168373ffffffffffffffffffffffffffffffffffffffff16141561137b576040517f08c379a000000000000000000000000000000000000000000000000000000000815260040161137290612623565b60405180910390fd5b600073ffffffffffffffffffffffffffffffffffffffff168273ffffffffffffffffffffffffffffffffffffffff1614156113eb576040517f08c379a00000000000000000000000000000000000000000000000000000000081526004016113e2906126b5565b60405180910390fd5b80600160008573ffffffffffffffffffffffffffffffffffffffff1673ffffffffffffffffffffffffffffffffffffffff16815260200190815260200160002060008473ffffffffffffffffffffffffffffffffffffffff1673ffffffffffffffffffffffffffffffffffffffff168152602001908152602001600020819055508173ffffffffffffffffffffffffffffffffffffffff168373ffffffffffffffffffffffffffffffffffffffff167f8c5be1e5ebec7d5bd14f71427d1e84f3dd0314c0f7b2291e5b200ac8c7c3b925836040516114c99190611f37565b60405180910390a3505050565b600073ffffffffffffffffffffffffffffffffffffffff168373ffffffffffffffffffffffffffffffffffffffff161415611546576040517f08c379a000000000000000000000000000000000000000000000000000000000815260040161153d90612747565b60405180910390fd5b600073ffffffffffffffffffffffffffffffffffffffff168273ffffffffffffffffffffffffffffffffffffffff1614156115b6576040517f08c379a00000000000000000000000000000000000000000000000000000000081526004016115ad906127d9565b60405180910390fd5b6115c183838361179c565b60008060008573ffffffffffffffffffffffffffffffffffffffff1673ffffffffffffffffffffffffffffffffffffffff16815260200190815260200160002054905081811015611647576040517f08c379a000000000000000000000000000000000000000000000000000000000815260040161163e9061286b565b60405180910390fd5b8181036000808673ffffffffffffffffffffffffffffffffffffffff1673ffffffffffffffffffffffffffffffffffffffff16815260200190815260200160002081905550816000808573ffffffffffffffffffffffffffffffffffffffff1673ffffffffffffffffffffffffffffffffffffffff16815260200190815260200160002060008282546116da9190612426565b925050819055508273ffffffffffffffffffffffffffffffffffffffff168473ffffffffffffffffffffffffffffffffffffffff167fddf252ad1be2c89b69c2b068fc378daa952ba7f163c4a11628f55a4df523b3ef8460405161173e9190611f37565b60405180910390a36117518484846117a1565b50505050565b600061176a6117646117a6565b836118c0565b9050919050565b6000806000611782878787876118f3565b9150915061178f81611a00565b8192505050949350505050565b505050565b505050565b60007f000000000000000000000000000000000000000000000000000000000000000073ffffffffffffffffffffffffffffffffffffffff163073ffffffffffffffffffffffffffffffffffffffff1614801561182257507f000000000000000000000000000000000000000000000000000000000000000046145b1561184f577f000000000000000000000000000000000000000000000000000000000000000090506118bd565b6118ba7f00000000000000000000000000000000000000000000000000000000000000007f00000000000000000000000000000000000000000000000000000000000000007f0000000000000000000000000000000000000000000000000000000000000000611bd5565b90505b90565b600082826040516020016118d5929190612903565b60405160208183030381529060405280519060200120905092915050565b6000807f7fffffffffffffffffffffffffffffff5d576e7357a4501ddfe92f46681b20a08360001c111561192e5760006003915091506119f7565b601b8560ff16141580156119465750601c8560ff1614155b156119585760006004915091506119f7565b60006001878787876040516000815260200160405260405161197d949392919061293a565b6020604051602081039080840390855afa15801561199f573d6000803e3d6000fd5b505050602060405103519050600073ffffffffffffffffffffffffffffffffffffffff168173ffffffffffffffffffffffffffffffffffffffff1614156119ee576000600192509250506119f7565b80600092509250505b94509492505050565b60006004811115611a1457611a1361297f565b5b816004811115611a2757611a2661297f565b5b1415611a3257611bd2565b60016004811115611a4657611a4561297f565b5b816004811115611a5957611a5861297f565b5b1415611a9a576040517f08c379a0000000000000000000000000000000000000000000000000000000008152600401611a91906129fa565b60405180910390fd5b60026004811115611aae57611aad61297f565b5b816004811115611ac157611ac061297f565b5b1415611b02576040517f08c379a0000000000000000000000000000000000000000000000000000000008152600401611af990612a66565b60405180910390fd5b60036004811115611b1657611b1561297f565b5b816004811115611b2957611b2861297f565b5b1415611b6a576040517f08c379a0000000000000000000000000000000000000000000000000000000008152600401611b6190612af8565b60405180910390fd5b600480811115611b7d57611b7c61297f565b5b816004811115611b9057611b8f61297f565b5b1415611bd1576040517f08c379a0000000000000000000000000000000000000000000000000000000008152600401611bc890612b8a565b60405180910390fd5b5b50565b60008383834630604051602001611bf0959493929190612baa565b6040516020818303038152906040528051906020012090509392505050565b600081519050919050565b600082825260208201905092915050565b60005b83811015611c49578082015181840152602081019050611c2e565b83811115611c58576000848401525b50505050565b6000601f19601f8301169050919050565b6000611c7a82611c0f565b611c848185611c1a565b9350611c94818560208601611c2b565b611c9d81611c5e565b840191505092915050565b60006020820190508181036000830152611cc28184611c6f565b905092915050565b600080fd5b600073ffffffffffffffffffffffffffffffffffffffff82169050919050565b6000611cfa82611ccf565b9050919050565b611d0a81611cef565b8114611d1557600080fd5b50565b600081359050611d2781611d01565b92915050565b6000819050919050565b611d4081611d2d565b8114611d4b57600080fd5b50565b600081359050611d5d81611d37565b92915050565b60008060408385031215611d7a57611d79611cca565b5b6000611d8885828601611d18565b9250506020611d9985828601611d4e565b9150509250929050565b60008115159050919050565b611db881611da3565b82525050565b6000602082019050611dd36000830184611daf565b92915050565b600060ff82169050919050565b611def81611dd9565b8114611dfa57600080fd5b50565b600081359050611e0c81611de6565b92915050565b6000819050919050565b611e2581611e12565b8114611e3057600080fd5b50565b600081359050611e4281611e1c565b92915050565b600080600080600060a08688031215611e6457611e63611cca565b5b6000611e7288828901611d18565b9550506020611e8388828901611d4e565b9450506040611e9488828901611dfd565b9350506060611ea588828901611e33565b9250506080611eb688828901611e33565b9150509295509295909350565b600060208284031215611ed957611ed8611cca565b5b6000611ee784828501611d18565b91505092915050565b611ef981611cef565b82525050565b6000604082019050611f146000830185611ef0565b611f216020830184611daf565b9392505050565b611f3181611d2d565b82525050565b6000602082019050611f4c6000830184611f28565b92915050565b600080600060608486031215611f6b57611f6a611cca565b5b6000611f7986828701611d18565b9350506020611f8a86828701611d18565b9250506040611f9b86828701611d4e565b9150509250925092565b611fae81611dd9565b82525050565b6000602082019050611fc96000830184611fa5565b92915050565b611fd881611e12565b82525050565b6000602082019050611ff36000830184611fcf565b92915050565b600060208201905061200e6000830184611ef0565b92915050565b60006020828403121561202a57612029611cca565b5b600061203884828501611e33565b91505092915050565b6000806000806080858703121561205b5761205a611cca565b5b600061206987828801611e33565b945050602061207a87828801611dfd565b935050604061208b87828801611e33565b925050606061209c87828801611e33565b91505092959194509250565b600080604083850312156120bf576120be611cca565b5b60006120cd85828601611d18565b92505060206120de85828601611d18565b9150509250929050565b7f4e487b7100000000000000000000000000000000000000000000000000000000600052602260045260246000fd5b6000600282049050600182168061212f57607f821691505b60208210811415612143576121426120e8565b5b50919050565b7f6e6f7420612076616c6964206164647265737300000000000000000000000000600082015250565b600061217f601383611c1a565b915061218a82612149565b602082019050919050565b600060208201905081810360008301526121ae81612172565b9050919050565b7f6164647265737320697320626c61636b6c697374656400000000000000000000600082015250565b60006121eb601683611c1a565b91506121f6826121b5565b602082019050919050565b6000602082019050818103600083015261221a816121de565b9050919050565b7f686173206e6f20656d657267656e637920616464726573730000000000000000600082015250565b6000612257601883611c1a565b915061226282612221565b602082019050919050565b600060208201905081810360008301526122868161224a565b9050919050565b7f77726f6e67207369676e65720000000000000000000000000000000000000000600082015250565b60006122c3600c83611c1a565b91506122ce8261228d565b602082019050919050565b600060208201905081810360008301526122f2816122b6565b9050919050565b7f74696d6520657870697265640000000000000000000000000000000000000000600082015250565b600061232f600c83611c1a565b915061233a826122f9565b602082019050919050565b6000602082019050818103600083015261235e81612322565b9050919050565b7f45524332303a207472616e7366657220616d6f756e742065786365656473206160008201527f6c6c6f77616e6365000000000000000000000000000000000000000000000000602082015250565b60006123c1602883611c1a565b91506123cc82612365565b604082019050919050565b600060208201905081810360008301526123f0816123b4565b9050919050565b7f4e487b7100000000000000000000000000000000000000000000000000000000600052601160045260246000fd5b600061243182611d2d565b915061243c83611d2d565b9250827fffffffffffffffffffffffffffffffffffffffffffffffffffffffffffffffff03821115612471576124706123f7565b5b828201905092915050565b60006060820190506124916000830186611fcf565b61249e6020830185611ef0565b6124ab6040830184611f28565b949350505050565b7f45524332303a2064656372656173656420616c6c6f77616e63652062656c6f7760008201527f207a65726f000000000000000000000000000000000000000000000000000000602082015250565b600061250f602583611c1a565b915061251a826124b3565b604082019050919050565b6000602082019050818103600083015261253e81612502565b9050919050565b7f6e6f7420612076616c696420656d657267656e63792061646472657373000000600082015250565b600061257b601d83611c1a565b915061258682612545565b602082019050919050565b600060208201905081810360008301526125aa8161256e565b9050919050565b7f45524332303a20617070726f76652066726f6d20746865207a65726f2061646460008201527f7265737300000000000000000000000000000000000000000000000000000000602082015250565b600061260d602483611c1a565b9150612618826125b1565b604082019050919050565b6000602082019050818103600083015261263c81612600565b9050919050565b7f45524332303a20617070726f766520746f20746865207a65726f20616464726560008201527f7373000000000000000000000000000000000000000000000000000000000000602082015250565b600061269f602283611c1a565b91506126aa82612643565b604082019050919050565b600060208201905081810360008301526126ce81612692565b9050919050565b7f45524332303a207472616e736665722066726f6d20746865207a65726f20616460008201527f6472657373000000000000000000000000000000000000000000000000000000602082015250565b6000612731602583611c1a565b915061273c826126d5565b604082019050919050565b6000602082019050818103600083015261276081612724565b9050919050565b7f45524332303a207472616e7366657220746f20746865207a65726f206164647260008201527f6573730000000000000000000000000000000000000000000000000000000000602082015250565b60006127c3602383611c1a565b91506127ce82612767565b604082019050919050565b600060208201905081810360008301526127f2816127b6565b9050919050565b7f45524332303a207472616e7366657220616d6f756e742065786365656473206260008201527f616c616e63650000000000000000000000000000000000000000000000000000602082015250565b6000612855602683611c1a565b9150612860826127f9565b604082019050919050565b6000602082019050818103600083015261288481612848565b9050919050565b600081905092915050565b7f1901000000000000000000000000000000000000000000000000000000000000600082015250565b60006128cc60028361288b565b91506128d782612896565b600282019050919050565b6000819050919050565b6128fd6128f882611e12565b6128e2565b82525050565b600061290e826128bf565b915061291a82856128ec565b60208201915061292a82846128ec565b6020820191508190509392505050565b600060808201905061294f6000830187611fcf565b61295c6020830186611fa5565b6129696040830185611fcf565b6129766060830184611fcf565b95945050505050565b7f4e487b7100000000000000000000000000000000000000000000000000000000600052602160045260246000fd5b7f45434453413a20696e76616c6964207369676e61747572650000000000000000600082015250565b60006129e4601883611c1a565b91506129ef826129ae565b602082019050919050565b60006020820190508181036000830152612a13816129d7565b9050919050565b7f45434453413a20696e76616c6964207369676e6174757265206c656e67746800600082015250565b6000612a50601f83611c1a565b9150612a5b82612a1a565b602082019050919050565b60006020820190508181036000830152612a7f81612a43565b9050919050565b7f45434453413a20696e76616c6964207369676e6174757265202773272076616c60008201527f7565000000000000000000000000000000000000000000000000000000000000602082015250565b6000612ae2602283611c1a565b9150612aed82612a86565b604082019050919050565b60006020820190508181036000830152612b1181612ad5565b9050919050565b7f45434453413a20696e76616c6964207369676e6174757265202776272076616c60008201527f7565000000000000000000000000000000000000000000000000000000000000602082015250565b6000612b74602283611c1a565b9150612b7f82612b18565b604082019050919050565b60006020820190508181036000830152612ba381612b67565b9050919050565b600060a082019050612bbf6000830188611fcf565b612bcc6020830187611fcf565b612bd96040830186611fcf565b612be66060830185611f28565b612bf36080830184611ef0565b969550505050505056fe456d657267656e63795472616e736665722861646472657373207369676e65722c75696e743235362065787069726174696f6e29a264697066735822122049f21db6928f9e511dd85fc9bf9ee4afcc520fb45c2aa7eb64408b3661e32f4564736f6c634300080b0033",
  "immutableReferences": {
    "1269": [
      {
        "length": 32,
        "start": 6185
      }
    ],
    "1271": [
      {
        "length": 32,
        "start": 6144
      }
    ],
    "1273": [
      {
        "length": 32,
        "start": 6058
      }
    ],
    "1275": [
      {
        "length": 32,
        "start": 6261
      }
    ],
    "1277": [
      {
        "length": 32,
        "start": 6294
      }
    ],
    "1279": [
      {
        "length": 32,
        "start": 6228
      }
    ]
  },
  "source": "// SPDX-License-Identifier: MIT\n\npragma solidity ^0.8.11;\n\nimport \"@openzeppelin/contracts/token/ERC20/ERC20.sol\";\nimport \"@openzeppelin/contracts/utils/cryptography/ECDSA.sol\";\nimport \"@openzeppelin/contracts/utils/cryptography/draft-EIP712.sol\";\n\ncontract Emergency is EIP712, ERC20{\n\n    struct accountInfo {\n        address emergencyAddress;\n        bool isBlacklisted;\n    }\n\n    mapping (address => accountInfo) public accountInformation;\n\n    event RegisterEmergencyAddress(address indexed tokenHolder, address indexed emergencyAddress);\n    event EmergencyTransfer(address indexed caller, address indexed signer, address indexed emergencyAddress, uint256 amount);\n\n    modifier notBlacklisted(address tokenHolder) {\n        require(!accountInformation[tokenHolder].isBlacklisted, \"address is blacklisted\");\n        _;\n    }\n\n    modifier hasEmergencyAddress(address tokenHolder) {\n        require(accountInformation[tokenHolder].emergencyAddress != address(0), \"has no emergency address\");\n        _;\n    }\n\n    modifier validAddress(address tokenHolder) {\n        require(tokenHolder != address(0), \"not a valid address\");\n        _;\n    }\n\n    constructor(\n        string memory _name, \n        string memory _symbol, \n        string memory _version\n    ) EIP712(_name, _version) ERC20(_name, _symbol) {\n        uint256 initialSupply = 100;\n        _mint(_msgSender(), initialSupply * 10**decimals());\n        \n    }\n    \n    function emergencyTransfer(\n        address signer, \n        uint256 expiration, \n        uint8 v, \n        bytes32 r, \n        bytes32 s\n    ) external validAddress(signer) notBlacklisted(signer) hasEmergencyAddress(signer) {\n        bytes32 digest = buildDigest(signer, expiration);\n\n        require(signer == recoverSigner(digest, v, r, s), \"wrong signer\");\n        require(block.timestamp < expiration, \"time expired\");\n        \n        uint256 signerBalance = balanceOf(signer);\n        accountInformation[signer].isBlacklisted = true;\n\n        _transfer(signer, accountInformation[signer].emergencyAddress, signerBalance);\n        emit EmergencyTransfer(_msgSender(), signer, accountInformation[signer].emergencyAddress, signerBalance);\n    }\n\n\n    function registerEmergencyAddress(\n        address emergencyAddress\n    ) external notBlacklisted(_msgSender()) notBlacklisted(emergencyAddress) validAddress(emergencyAddress) {\n\n        require(_msgSender() != emergencyAddress, \"not a valid emergency address\");\n\n        accountInformation[_msgSender()].emergencyAddress = emergencyAddress;\n\n        emit RegisterEmergencyAddress(_msgSender(), emergencyAddress);\n    }\n\n    function getEmergencyAddress(\n        address tokenHolder\n    ) external view validAddress(tokenHolder) returns (address) {\n        return accountInformation[tokenHolder].emergencyAddress;\n    }\n\n    function buildDigest(\n        address signer, \n        uint256 expiration\n    ) public view returns(bytes32) {\n        bytes32 EMERGENCY_TRANSFER_TYPEHASH = keccak256(bytes(\n            \"EmergencyTransfer(address signer,uint256 expiration)\"\n        ));\n\n        bytes32 digest = _hashTypedDataV4(keccak256(abi.encode(\n            EMERGENCY_TRANSFER_TYPEHASH,\n            signer,\n            expiration\n        )));\n\n        return digest;\n    }\n\n    function recoverSigner(\n        bytes32 digest, \n        uint8 v, \n        bytes32 r, \n        bytes32 s\n    ) public pure returns(address) {\n        return ECDSA.recover(digest, v, r, s);\n    }\n\n    function transfer(\n        address recipient, \n        uint256 amount\n    ) public override returns (bool) {\n        if (accountInformation[recipient].isBlacklisted)\n            recipient = accountInformation[recipient].emergencyAddress;\n        _transfer(_msgSender(), recipient, amount);\n        \n        return true;\n    }\n\n    function transferFrom(\n        address sender,\n        address recipient,\n        uint256 amount\n    ) public override returns (bool) {\n        if (accountInformation[recipient].isBlacklisted)\n            recipient = accountInformation[recipient].emergencyAddress;\n\n        _transfer(sender, recipient, amount);\n\n        uint256 currentAllowance = allowance(sender,_msgSender());\n        require(currentAllowance >= amount, \"ERC20: transfer amount exceeds allowance\");\n        unchecked {\n            _approve(sender, _msgSender(), currentAllowance - amount);\n        }\n\n        return true;\n    }\n\n    function buildHashTypedDataV4(bytes32 structHash) public view returns(bytes32) {\n        return _hashTypedDataV4(structHash);\n    }\n\n}\n",
  "sourcePath": "/Users/komdori/solidity_bootstrap/EIP712-emergency-transfer/contracts/Emergency.sol",
  "compiler": {
    "name": "solc",
    "version": "0.8.11+commit.d7f03943.Emscripten.clang"
  },
  "schemaVersion": "3.4.4",
  "updatedAt": "2022-01-02T04:36:03.358Z",
  "devdoc": {
    "kind": "dev",
    "methods": {
      "allowance(address,address)": {
        "details": "See {IERC20-allowance}."
      },
      "approve(address,uint256)": {
        "details": "See {IERC20-approve}. Requirements: - `spender` cannot be the zero address."
      },
      "balanceOf(address)": {
        "details": "See {IERC20-balanceOf}."
      },
      "decimals()": {
        "details": "Returns the number of decimals used to get its user representation. For example, if `decimals` equals `2`, a balance of `505` tokens should be displayed to a user as `5.05` (`505 / 10 ** 2`). Tokens usually opt for a value of 18, imitating the relationship between Ether and Wei. This is the value {ERC20} uses, unless this function is overridden; NOTE: This information is only used for _display_ purposes: it in no way affects any of the arithmetic of the contract, including {IERC20-balanceOf} and {IERC20-transfer}."
      },
      "decreaseAllowance(address,uint256)": {
        "details": "Atomically decreases the allowance granted to `spender` by the caller. This is an alternative to {approve} that can be used as a mitigation for problems described in {IERC20-approve}. Emits an {Approval} event indicating the updated allowance. Requirements: - `spender` cannot be the zero address. - `spender` must have allowance for the caller of at least `subtractedValue`."
      },
      "increaseAllowance(address,uint256)": {
        "details": "Atomically increases the allowance granted to `spender` by the caller. This is an alternative to {approve} that can be used as a mitigation for problems described in {IERC20-approve}. Emits an {Approval} event indicating the updated allowance. Requirements: - `spender` cannot be the zero address."
      },
      "name()": {
        "details": "Returns the name of the token."
      },
      "symbol()": {
        "details": "Returns the symbol of the token, usually a shorter version of the name."
      },
      "totalSupply()": {
        "details": "See {IERC20-totalSupply}."
      },
      "transfer(address,uint256)": {
        "details": "See {IERC20-transfer}. Requirements: - `recipient` cannot be the zero address. - the caller must have a balance of at least `amount`."
      },
      "transferFrom(address,address,uint256)": {
        "details": "See {IERC20-transferFrom}. Emits an {Approval} event indicating the updated allowance. This is not required by the EIP. See the note at the beginning of {ERC20}. Requirements: - `sender` and `recipient` cannot be the zero address. - `sender` must have a balance of at least `amount`. - the caller must have allowance for ``sender``'s tokens of at least `amount`."
      }
    },
    "version": 1
  },
  "userdoc": {
    "kind": "user",
    "methods": {},
    "version": 1
  }
}